{
  "_format": "hh-sol-artifact-1",
  "contractName": "ZyraPresale",
  "sourceName": "contracts/ZyraPresale.sol",
  "abi": [
    {
      "inputs": [
        {
          "internalType": "address",
          "name": "_token",
          "type": "address"
        },
        {
          "internalType": "uint256",
          "name": "_price",
          "type": "uint256"
        },
        {
          "internalType": "uint256",
          "name": "_minPurchase",
          "type": "uint256"
        },
        {
          "internalType": "uint256",
          "name": "_maxPurchase",
          "type": "uint256"
        },
        {
          "internalType": "uint256",
          "name": "_presaleStart",
          "type": "uint256"
        },
        {
          "internalType": "uint256",
          "name": "_presaleDuration",
          "type": "uint256"
        },
        {
          "internalType": "uint256",
          "name": "_hardcap",
          "type": "uint256"
        }
      ],
      "stateMutability": "nonpayable",
      "type": "constructor"
    },
    {
      "anonymous": false,
      "inputs": [
        {
          "indexed": true,
          "internalType": "address",
          "name": "owner",
          "type": "address"
        },
        {
          "indexed": false,
          "internalType": "uint256",
          "name": "amount",
          "type": "uint256"
        }
      ],
      "name": "FundsWithdrawn",
      "type": "event"
    },
    {
      "anonymous": false,
      "inputs": [
        {
          "indexed": true,
          "internalType": "address",
          "name": "previousOwner",
          "type": "address"
        },
        {
          "indexed": true,
          "internalType": "address",
          "name": "newOwner",
          "type": "address"
        }
      ],
      "name": "OwnershipTransferred",
      "type": "event"
    },
    {
      "anonymous": false,
      "inputs": [
        {
          "indexed": false,
          "internalType": "uint256",
          "name": "totalSold",
          "type": "uint256"
        }
      ],
      "name": "PresaleFinalized",
      "type": "event"
    },
    {
      "anonymous": false,
      "inputs": [
        {
          "indexed": true,
          "internalType": "address",
          "name": "buyer",
          "type": "address"
        },
        {
          "indexed": false,
          "internalType": "uint256",
          "name": "amount",
          "type": "uint256"
        },
        {
          "indexed": false,
          "internalType": "uint256",
          "name": "cost",
          "type": "uint256"
        }
      ],
      "name": "TokensPurchased",
      "type": "event"
    },
    {
      "anonymous": false,
      "inputs": [
        {
          "indexed": true,
          "internalType": "address",
          "name": "buyer",
          "type": "address"
        },
        {
          "indexed": false,
          "internalType": "uint256",
          "name": "amount",
          "type": "uint256"
        }
      ],
      "name": "TokensWithdrawn",
      "type": "event"
    },
    {
      "inputs": [],
      "name": "buyTokens",
      "outputs": [],
      "stateMutability": "payable",
      "type": "function"
    },
    {
      "inputs": [
        {
          "internalType": "address",
          "name": "",
          "type": "address"
        }
      ],
      "name": "contributions",
      "outputs": [
        {
          "internalType": "uint256",
          "name": "",
          "type": "uint256"
        }
      ],
      "stateMutability": "view",
      "type": "function"
    },
    {
      "inputs": [],
      "name": "emergencyWithdraw",
      "outputs": [],
      "stateMutability": "nonpayable",
      "type": "function"
    },
    {
      "inputs": [],
      "name": "finalize",
      "outputs": [],
      "stateMutability": "nonpayable",
      "type": "function"
    },
    {
      "inputs": [],
      "name": "hardcap",
      "outputs": [
        {
          "internalType": "uint256",
          "name": "",
          "type": "uint256"
        }
      ],
      "stateMutability": "view",
      "type": "function"
    },
    {
      "inputs": [],
      "name": "isFinalized",
      "outputs": [
        {
          "internalType": "bool",
          "name": "",
          "type": "bool"
        }
      ],
      "stateMutability": "view",
      "type": "function"
    },
    {
      "inputs": [],
      "name": "maxPurchase",
      "outputs": [
        {
          "internalType": "uint256",
          "name": "",
          "type": "uint256"
        }
      ],
      "stateMutability": "view",
      "type": "function"
    },
    {
      "inputs": [],
      "name": "minPurchase",
      "outputs": [
        {
          "internalType": "uint256",
          "name": "",
          "type": "uint256"
        }
      ],
      "stateMutability": "view",
      "type": "function"
    },
    {
      "inputs": [],
      "name": "owner",
      "outputs": [
        {
          "internalType": "address",
          "name": "",
          "type": "address"
        }
      ],
      "stateMutability": "view",
      "type": "function"
    },
    {
      "inputs": [],
      "name": "presaleEnd",
      "outputs": [
        {
          "internalType": "uint256",
          "name": "",
          "type": "uint256"
        }
      ],
      "stateMutability": "view",
      "type": "function"
    },
    {
      "inputs": [],
      "name": "presaleStart",
      "outputs": [
        {
          "internalType": "uint256",
          "name": "",
          "type": "uint256"
        }
      ],
      "stateMutability": "view",
      "type": "function"
    },
    {
      "inputs": [],
      "name": "price",
      "outputs": [
        {
          "internalType": "uint256",
          "name": "",
          "type": "uint256"
        }
      ],
      "stateMutability": "view",
      "type": "function"
    },
    {
      "inputs": [],
      "name": "renounceOwnership",
      "outputs": [],
      "stateMutability": "nonpayable",
      "type": "function"
    },
    {
      "inputs": [
        {
          "internalType": "uint256",
          "name": "_newPrice",
          "type": "uint256"
        }
      ],
      "name": "setPrice",
      "outputs": [],
      "stateMutability": "nonpayable",
      "type": "function"
    },
    {
      "inputs": [],
      "name": "token",
      "outputs": [
        {
          "internalType": "contract IERC20",
          "name": "",
          "type": "address"
        }
      ],
      "stateMutability": "view",
      "type": "function"
    },
    {
      "inputs": [],
      "name": "totalSold",
      "outputs": [
        {
          "internalType": "uint256",
          "name": "",
          "type": "uint256"
        }
      ],
      "stateMutability": "view",
      "type": "function"
    },
    {
      "inputs": [
        {
          "internalType": "address",
          "name": "newOwner",
          "type": "address"
        }
      ],
      "name": "transferOwnership",
      "outputs": [],
      "stateMutability": "nonpayable",
      "type": "function"
    },
    {
      "inputs": [],
      "name": "withdrawFunds",
      "outputs": [],
      "stateMutability": "nonpayable",
      "type": "function"
    }
  ],
  "bytecode": "0x608060405234801562000010575f80fd5b50604051620011c5380380620011c58339810160408190526200003391620002ff565b6200003e336200029a565b600180556001600160a01b0387166200009e5760405162461bcd60e51b815260206004820152601560248201527f496e76616c696420746f6b656e2061646472657373000000000000000000000060448201526064015b60405180910390fd5b5f8611620000ef5760405162461bcd60e51b815260206004820152601c60248201527f5072696365206d7573742062652067726561746572207468616e203000000000604482015260640162000095565b5f85116200014c5760405162461bcd60e51b815260206004820152602360248201527f4d696e207075726368617365206d75737420626520677265617465722074686160448201526206e20360ec1b606482015260840162000095565b84841015620001aa5760405162461bcd60e51b8152602060048201526024808201527f4d6178207075726368617365206d757374206265203e3d206d696e20707572636044820152636861736560e01b606482015260840162000095565b5f8211620001fb5760405162461bcd60e51b815260206004820152601f60248201527f4475726174696f6e206d7573742062652067726561746572207468616e203000604482015260640162000095565b5f81116200024c5760405162461bcd60e51b815260206004820152601e60248201527f48617264636170206d7573742062652067726561746572207468616e20300000604482015260640162000095565b600280546001600160a01b0319166001600160a01b0389161790556003869055600485905560058490556006839055620002878383620002e9565b6007556008555062000384945050505050565b5f80546001600160a01b038381166001600160a01b0319831681178455604051919092169283917f8be0079c531659141344cd1fd0a4f28419497f9722a3daafe3b4186f6b6457e09190a35050565b5f620002f6828462000364565b90505b92915050565b5f805f805f805f60e0888a03121562000316575f80fd5b87516001600160a01b03811681146200032d575f80fd5b602089015160408a015160608b015160808c015160a08d015160c0909d0151949e939d50919b909a50909850965090945092505050565b80820180821115620002f957634e487b7160e01b5f52601160045260245ffd5b610e3380620003925f395ff3fe608060405260043610610105575f3560e01c806391b7f5ed11610092578063d0febe4c11610062578063d0febe4c1461027b578063db2e21bc14610283578063de8801e514610297578063f2fde38b146102ac578063fc0c546a146102cb575f80fd5b806391b7f5ed1461021d578063977b055b1461023c578063a035b1fe14610251578063b071cbe614610266575f80fd5b80634bb278f3116100d85780634bb278f314610187578063715018a61461019b5780638d4e4083146101af5780638da5cb5b146101d85780639106d7ba14610208575f80fd5b8063229f3e291461010957806324600fc31461013157806333b5b62e1461014757806342e94c901461015c575b5f80fd5b348015610114575f80fd5b5061011e60075481565b6040519081526020015b60405180910390f35b34801561013c575f80fd5b506101456102ea565b005b348015610152575f80fd5b5061011e60045481565b348015610167575f80fd5b5061011e610176366004610d45565b600b6020525f908152604090205481565b348015610192575f80fd5b50610145610466565b3480156101a6575f80fd5b50610145610557565b3480156101ba575f80fd5b50600a546101c89060ff1681565b6040519015158152602001610128565b3480156101e3575f80fd5b505f546001600160a01b03165b6040516001600160a01b039091168152602001610128565b348015610213575f80fd5b5061011e60095481565b348015610228575f80fd5b50610145610237366004610d72565b61056a565b348015610247575f80fd5b5061011e60055481565b34801561025c575f80fd5b5061011e60035481565b348015610271575f80fd5b5061011e60085481565b610145610607565b34801561028e575f80fd5b50610145610975565b3480156102a2575f80fd5b5061011e60065481565b3480156102b7575f80fd5b506101456102c6366004610d45565b610bac565b3480156102d6575f80fd5b506002546101f0906001600160a01b031681565b6102f2610c25565b600a5460ff166103395760405162461bcd60e51b815260206004820152600d60248201526c139bdd08199a5b985b1a5e9959609a1b60448201526064015b60405180910390fd5b478061037e5760405162461bcd60e51b81526020600482015260146024820152734e6f2066756e647320746f20776974686472617760601b6044820152606401610330565b5f80546040516001600160a01b039091169083908381818185875af1925050503d805f81146103c8576040519150601f19603f3d011682016040523d82523d5f602084013e6103cd565b606091505b50509050806104155760405162461bcd60e51b81526020600482015260146024820152734661696c656420746f2073656e642066756e647360601b6044820152606401610330565b5f546001600160a01b03166001600160a01b03167feaff4b37086828766ad3268786972c0cd24259d4c87a80f9d3963a3c3d999b0d8360405161045a91815260200190565b60405180910390a25050565b61046e610c25565b600754421180610482575060085460095410155b6104c45760405162461bcd60e51b815260206004820152601360248201527210d85b9b9bdd08199a5b985b1a5e99481e595d606a1b6044820152606401610330565b600a5460ff161561050b5760405162461bcd60e51b8152602060048201526011602482015270105b1c9958591e48199a5b985b1a5e9959607a1b6044820152606401610330565b600a805460ff191660011790556009546040517fba77ddc9e26933f19061480be65d8ea3dcf88fb70efd476df9515333cabee8c49161054d9190815260200190565b60405180910390a1565b61055f610c25565b6105685f610c7e565b565b610572610c25565b5f81116105b15760405162461bcd60e51b815260206004820152600d60248201526c496e76616c696420707269636560981b6044820152606401610330565b60065442106106025760405162461bcd60e51b815260206004820152601760248201527f50726573616c6520616c726561647920737461727465640000000000000000006044820152606401610330565b600355565b61060f610ccd565b6006544210156106575760405162461bcd60e51b8152602060048201526013602482015272141c995cd85b19481b9bdd081cdd185c9d1959606a1b6044820152606401610330565b6007544211156106995760405162461bcd60e51b815260206004820152600d60248201526c141c995cd85b1948195b991959609a1b6044820152606401610330565b600a5460ff16156106e35760405162461bcd60e51b8152602060048201526014602482015273141c995cd85b19481a5cc8199a5b985b1a5e995960621b6044820152606401610330565b60045434101561072e5760405162461bcd60e51b815260206004820152601660248201527542656c6f77206d696e696d756d20707572636861736560501b6044820152606401610330565b6005543411156107805760405162461bcd60e51b815260206004820152601860248201527f45786365656473206d6178696d756d20707572636861736500000000000000006044820152606401610330565b5f61079660035434610d2690919063ffffffff16565b90506008546107b082600954610d3a90919063ffffffff16565b11156107f05760405162461bcd60e51b815260206004820152600f60248201526e12185c9918d85c081c995858da1959608a1b6044820152606401610330565b335f908152600b60205260409020546108099034610d3a565b335f908152600b60205260409020819055600554101561086b5760405162461bcd60e51b815260206004820152601860248201527f45786365656473206d617820636f6e747269627574696f6e00000000000000006044820152606401610330565b6009546108789082610d3a565b60095560025460405163a9059cbb60e01b8152336004820152602481018390526001600160a01b039091169063a9059cbb906044016020604051808303815f875af11580156108c9573d5f803e3d5ffd5b505050506040513d601f19601f820116820180604052508101906108ed9190610d89565b6109315760405162461bcd60e51b8152602060048201526015602482015274151bdad95b881d1c985b9cd9995c8819985a5b1959605a1b6044820152606401610330565b6040805182815234602082015233917f8fafebcaf9d154343dad25669bfa277f4fbacd7ac6b0c4fed522580e040a0f33910160405180910390a25061056860018055565b61097d610c25565b600a5460ff16156109c45760405162461bcd60e51b8152602060048201526011602482015270105b1c9958591e48199a5b985b1a5e9959607a1b6044820152606401610330565b6002546040516370a0823160e01b81523060048201525f916001600160a01b0316906370a0823190602401602060405180830381865afa158015610a0a573d5f803e3d5ffd5b505050506040513d601f19601f82011682018060405250810190610a2e9190610da8565b90508015610b0a576002546001600160a01b031663a9059cbb610a585f546001600160a01b031690565b6040516001600160e01b031960e084901b1681526001600160a01b039091166004820152602481018490526044016020604051808303815f875af1158015610aa2573d5f803e3d5ffd5b505050506040513d601f19601f82011682018060405250810190610ac69190610d89565b610b0a5760405162461bcd60e51b8152602060048201526015602482015274151bdad95b881d1c985b9cd9995c8819985a5b1959605a1b6044820152606401610330565b478015610ba8575f80546040516001600160a01b039091169083908381818185875af1925050503d805f8114610b5b576040519150601f19603f3d011682016040523d82523d5f602084013e610b60565b606091505b5050905080610ba65760405162461bcd60e51b815260206004820152601260248201527108cc2d2d8cac840e8de40e6cadcc8408aa8960731b6044820152606401610330565b505b5050565b610bb4610c25565b6001600160a01b038116610c195760405162461bcd60e51b815260206004820152602660248201527f4f776e61626c653a206e6577206f776e657220697320746865207a65726f206160448201526564647265737360d01b6064820152608401610330565b610c2281610c7e565b50565b5f546001600160a01b031633146105685760405162461bcd60e51b815260206004820181905260248201527f4f776e61626c653a2063616c6c6572206973206e6f7420746865206f776e65726044820152606401610330565b5f80546001600160a01b038381166001600160a01b0319831681178455604051919092169283917f8be0079c531659141344cd1fd0a4f28419497f9722a3daafe3b4186f6b6457e09190a35050565b600260015403610d1f5760405162461bcd60e51b815260206004820152601f60248201527f5265656e7472616e637947756172643a207265656e7472616e742063616c6c006044820152606401610330565b6002600155565b5f610d318284610dd3565b90505b92915050565b5f610d318284610dea565b5f60208284031215610d55575f80fd5b81356001600160a01b0381168114610d6b575f80fd5b9392505050565b5f60208284031215610d82575f80fd5b5035919050565b5f60208284031215610d99575f80fd5b81518015158114610d6b575f80fd5b5f60208284031215610db8575f80fd5b5051919050565b634e487b7160e01b5f52601160045260245ffd5b8082028115828204841417610d3457610d34610dbf565b80820180821115610d3457610d34610dbf56fea2646970667358221220d0486d7973a7b23ef89d686026bc4ee33d5abace17f531cdc0ff8541c59b5cc864736f6c63430008140033",
  "linkReferences": {},
  "deployedLinkReferences": {}
}