{
  "_format": "hh-sol-artifact-1",
  "contractName": "ZyraVesting",
  "sourceName": "contracts/ZyraVesting.sol",
  "abi": [
    {
      "inputs": [
        {
          "internalType": "address",
          "name": "_token",
          "type": "address"
        }
      ],
      "stateMutability": "nonpayable",
      "type": "constructor"
    },
    {
      "anonymous": false,
      "inputs": [
        {
          "indexed": true,
          "internalType": "address",
          "name": "previousOwner",
          "type": "address"
        },
        {
          "indexed": true,
          "internalType": "address",
          "name": "newOwner",
          "type": "address"
        }
      ],
      "name": "OwnershipTransferred",
      "type": "event"
    },
    {
      "anonymous": false,
      "inputs": [
        {
          "indexed": true,
          "internalType": "address",
          "name": "beneficiary",
          "type": "address"
        },
        {
          "indexed": false,
          "internalType": "uint256",
          "name": "amount",
          "type": "uint256"
        }
      ],
      "name": "TokensVested",
      "type": "event"
    },
    {
      "anonymous": false,
      "inputs": [
        {
          "indexed": true,
          "internalType": "address",
          "name": "beneficiary",
          "type": "address"
        },
        {
          "indexed": false,
          "internalType": "uint256",
          "name": "amount",
          "type": "uint256"
        }
      ],
      "name": "VestingScheduleCreated",
      "type": "event"
    },
    {
      "inputs": [
        {
          "internalType": "address",
          "name": "_beneficiary",
          "type": "address"
        },
        {
          "internalType": "uint256",
          "name": "_start",
          "type": "uint256"
        },
        {
          "internalType": "uint256",
          "name": "_cliff",
          "type": "uint256"
        },
        {
          "internalType": "uint256",
          "name": "_duration",
          "type": "uint256"
        },
        {
          "internalType": "uint256",
          "name": "_totalAmount",
          "type": "uint256"
        }
      ],
      "name": "createVestingSchedule",
      "outputs": [],
      "stateMutability": "nonpayable",
      "type": "function"
    },
    {
      "inputs": [],
      "name": "owner",
      "outputs": [
        {
          "internalType": "address",
          "name": "",
          "type": "address"
        }
      ],
      "stateMutability": "view",
      "type": "function"
    },
    {
      "inputs": [],
      "name": "release",
      "outputs": [],
      "stateMutability": "nonpayable",
      "type": "function"
    },
    {
      "inputs": [],
      "name": "renounceOwnership",
      "outputs": [],
      "stateMutability": "nonpayable",
      "type": "function"
    },
    {
      "inputs": [],
      "name": "token",
      "outputs": [
        {
          "internalType": "contract IERC20",
          "name": "",
          "type": "address"
        }
      ],
      "stateMutability": "view",
      "type": "function"
    },
    {
      "inputs": [
        {
          "internalType": "address",
          "name": "newOwner",
          "type": "address"
        }
      ],
      "name": "transferOwnership",
      "outputs": [],
      "stateMutability": "nonpayable",
      "type": "function"
    },
    {
      "inputs": [
        {
          "internalType": "address",
          "name": "_beneficiary",
          "type": "address"
        }
      ],
      "name": "vestedAmount",
      "outputs": [
        {
          "internalType": "uint256",
          "name": "",
          "type": "uint256"
        }
      ],
      "stateMutability": "view",
      "type": "function"
    },
    {
      "inputs": [
        {
          "internalType": "address",
          "name": "",
          "type": "address"
        }
      ],
      "name": "vestingSchedules",
      "outputs": [
        {
          "internalType": "bool",
          "name": "initialized",
          "type": "bool"
        },
        {
          "internalType": "address",
          "name": "beneficiary",
          "type": "address"
        },
        {
          "internalType": "uint256",
          "name": "cliff",
          "type": "uint256"
        },
        {
          "internalType": "uint256",
          "name": "start",
          "type": "uint256"
        },
        {
          "internalType": "uint256",
          "name": "duration",
          "type": "uint256"
        },
        {
          "internalType": "uint256",
          "name": "totalAmount",
          "type": "uint256"
        },
        {
          "internalType": "uint256",
          "name": "released",
          "type": "uint256"
        }
      ],
      "stateMutability": "view",
      "type": "function"
    }
  ],
  "bytecode": "0x608060405234801561000f575f80fd5b50604051610a73380380610a7383398101604081905261002e91610105565b610037336100b6565b6001600160a01b0381166100915760405162461bcd60e51b815260206004820152601960248201527f546f6b656e20616464726573732063616e6e6f74206265203000000000000000604482015260640160405180910390fd5b600180546001600160a01b0319166001600160a01b0392909216919091179055610132565b5f80546001600160a01b038381166001600160a01b0319831681178455604051919092169283917f8be0079c531659141344cd1fd0a4f28419497f9722a3daafe3b4186f6b6457e09190a35050565b5f60208284031215610115575f80fd5b81516001600160a01b038116811461012b575f80fd5b9392505050565b6109348061013f5f395ff3fe608060405234801561000f575f80fd5b5060043610610085575f3560e01c80638da5cb5b116100585780638da5cb5b146100d4578063f2fde38b146100f8578063fc0c546a1461010b578063fdb20ccb1461011e575f80fd5b80631bf0b08b14610089578063384711cc1461009e578063715018a6146100c457806386d1a69f146100cc575b5f80fd5b61009c610097366004610818565b6101af565b005b6100b16100ac366004610856565b610423565b6040519081526020015b60405180910390f35b61009c6104e7565b61009c6104fa565b5f546001600160a01b03165b6040516001600160a01b0390911681526020016100bb565b61009c610106366004610856565b6106a7565b6001546100e0906001600160a01b031681565b61017061012c366004610856565b600260208190525f918252604090912080546001820154928201546003830154600484015460059094015460ff8416956101009094046001600160a01b0316949087565b6040805197151588526001600160a01b039096166020880152948601939093526060850191909152608084015260a083015260c082015260e0016100bb565b6101b7610720565b6001600160a01b0385165f9081526002602052604090205460ff16156102165760405162461bcd60e51b815260206004820152600f60248201526e5363686564756c652065786973747360881b60448201526064015b60405180910390fd5b5f821161025c5760405162461bcd60e51b815260206004820152601460248201527304475726174696f6e206d757374206265203e20360641b604482015260640161020d565b5f81116102a05760405162461bcd60e51b81526020600482015260126024820152710416d6f756e74206d757374206265203e20360741b604482015260640161020d565b6001546040516323b872dd60e01b8152336004820152306024820152604481018390526001600160a01b03909116906323b872dd906064016020604051808303815f875af11580156102f4573d5f803e3d5ffd5b505050506040513d601f19601f82011682018060405250810190610318919061086f565b506040805160e081018252600181526001600160a01b03871660208201529081016103438686610779565b81526020808201879052604080830186905260608084018690525f60809485018190526001600160a01b03808c1680835260028087529285902088518154978a015190931661010002610100600160a81b0319931515939093166001600160a81b031990971696909617919091178555868401516001860155918601519084015592840151600383015560a0840151600483015560c09093015160059091015590517f969705509595726740fe60cc30769bbd53c883efff4d8e70108a82817e0392a9906104149084815260200190565b60405180910390a25050505050565b6001600160a01b0381165f908152600260205260408120805460ff1661044b57505f92915050565b806001015442101561045f57505f92915050565b6003810154600282015461047291610779565b4210610492576005810154600482015461048b9161078d565b9392505050565b5f6104aa82600201544261078d90919063ffffffff16565b90506104df82600501546104d984600301546104d385876004015461079890919063ffffffff16565b906107a3565b9061078d565b949350505050565b6104ef610720565b6104f85f6107ae565b565b335f908152600260205260409020805460ff1661054f5760405162461bcd60e51b81526020600482015260136024820152724e6f2076657374696e67207363686564756c6560681b604482015260640161020d565b80600101544210156105975760405162461bcd60e51b815260206004820152601160248201527010db1a5999881b9bdd081c995858da1959607a1b604482015260640161020d565b5f6105a133610423565b90505f81116105e75760405162461bcd60e51b81526020600482015260126024820152714e6f7468696e6720746f2072656c6561736560701b604482015260640161020d565b60058201546105f69082610779565b600583015560015460405163a9059cbb60e01b8152336004820152602481018390526001600160a01b039091169063a9059cbb906044016020604051808303815f875af1158015610649573d5f803e3d5ffd5b505050506040513d601f19601f8201168201806040525081019061066d919061086f565b5060405181815233907fd4691cc79b8fc72aac1e8c0d15a2ca06d71a386c983f815266f0fce713dc5ea79060200160405180910390a25050565b6106af610720565b6001600160a01b0381166107145760405162461bcd60e51b815260206004820152602660248201527f4f776e61626c653a206e6577206f776e657220697320746865207a65726f206160448201526564647265737360d01b606482015260840161020d565b61071d816107ae565b50565b5f546001600160a01b031633146104f85760405162461bcd60e51b815260206004820181905260248201527f4f776e61626c653a2063616c6c6572206973206e6f7420746865206f776e6572604482015260640161020d565b5f61078482846108a2565b90505b92915050565b5f61078482846108b5565b5f61078482846108c8565b5f61078482846108df565b5f80546001600160a01b038381166001600160a01b0319831681178455604051919092169283917f8be0079c531659141344cd1fd0a4f28419497f9722a3daafe3b4186f6b6457e09190a35050565b80356001600160a01b0381168114610813575f80fd5b919050565b5f805f805f60a0868803121561082c575f80fd5b610835866107fd565b97602087013597506040870135966060810135965060800135945092505050565b5f60208284031215610866575f80fd5b610784826107fd565b5f6020828403121561087f575f80fd5b8151801515811461048b575f80fd5b634e487b7160e01b5f52601160045260245ffd5b808201808211156107875761078761088e565b818103818111156107875761078761088e565b80820281158282048414176107875761078761088e565b5f826108f957634e487b7160e01b5f52601260045260245ffd5b50049056fea26469706673582212204e90bc62d8e7274c82ac4a0528cf13e64517cf28a4ec83d1b66f9fa695090ce364736f6c63430008140033",
  "linkReferences": {},
  "deployedLinkReferences": {}
}