{
  "_format": "hh-sol-artifact-1",
  "contractName": "ZyraStaking",
  "sourceName": "contracts/ZyraStaking.sol",
  "abi": [
    {
      "inputs": [
        {
          "internalType": "address",
          "name": "_token",
          "type": "address"
        }
      ],
      "stateMutability": "nonpayable",
      "type": "constructor"
    },
    {
      "anonymous": false,
      "inputs": [
        {
          "indexed": true,
          "internalType": "address",
          "name": "previousOwner",
          "type": "address"
        },
        {
          "indexed": true,
          "internalType": "address",
          "name": "newOwner",
          "type": "address"
        }
      ],
      "name": "OwnershipTransferred",
      "type": "event"
    },
    {
      "anonymous": false,
      "inputs": [
        {
          "indexed": true,
          "internalType": "address",
          "name": "user",
          "type": "address"
        },
        {
          "indexed": false,
          "internalType": "uint256",
          "name": "amount",
          "type": "uint256"
        }
      ],
      "name": "RewardClaimed",
      "type": "event"
    },
    {
      "anonymous": false,
      "inputs": [
        {
          "indexed": true,
          "internalType": "address",
          "name": "user",
          "type": "address"
        },
        {
          "indexed": false,
          "internalType": "uint256",
          "name": "amount",
          "type": "uint256"
        }
      ],
      "name": "Staked",
      "type": "event"
    },
    {
      "anonymous": false,
      "inputs": [
        {
          "indexed": true,
          "internalType": "address",
          "name": "user",
          "type": "address"
        },
        {
          "indexed": false,
          "internalType": "uint256",
          "name": "amount",
          "type": "uint256"
        }
      ],
      "name": "Unstaked",
      "type": "event"
    },
    {
      "inputs": [],
      "name": "YEAR",
      "outputs": [
        {
          "internalType": "uint256",
          "name": "",
          "type": "uint256"
        }
      ],
      "stateMutability": "view",
      "type": "function"
    },
    {
      "inputs": [
        {
          "internalType": "address",
          "name": "_staker",
          "type": "address"
        }
      ],
      "name": "calculateReward",
      "outputs": [
        {
          "internalType": "uint256",
          "name": "",
          "type": "uint256"
        }
      ],
      "stateMutability": "view",
      "type": "function"
    },
    {
      "inputs": [],
      "name": "claimReward",
      "outputs": [],
      "stateMutability": "nonpayable",
      "type": "function"
    },
    {
      "inputs": [
        {
          "internalType": "address",
          "name": "_staker",
          "type": "address"
        }
      ],
      "name": "getStakeInfo",
      "outputs": [
        {
          "internalType": "uint256",
          "name": "amount",
          "type": "uint256"
        },
        {
          "internalType": "uint256",
          "name": "timestamp",
          "type": "uint256"
        },
        {
          "internalType": "uint256",
          "name": "lastRewardClaim",
          "type": "uint256"
        },
        {
          "internalType": "uint256",
          "name": "pendingRewards",
          "type": "uint256"
        }
      ],
      "stateMutability": "view",
      "type": "function"
    },
    {
      "inputs": [],
      "name": "owner",
      "outputs": [
        {
          "internalType": "address",
          "name": "",
          "type": "address"
        }
      ],
      "stateMutability": "view",
      "type": "function"
    },
    {
      "inputs": [],
      "name": "renounceOwnership",
      "outputs": [],
      "stateMutability": "nonpayable",
      "type": "function"
    },
    {
      "inputs": [],
      "name": "rewardRate",
      "outputs": [
        {
          "internalType": "uint256",
          "name": "",
          "type": "uint256"
        }
      ],
      "stateMutability": "view",
      "type": "function"
    },
    {
      "inputs": [
        {
          "internalType": "uint256",
          "name": "_newRate",
          "type": "uint256"
        }
      ],
      "name": "setRewardRate",
      "outputs": [],
      "stateMutability": "nonpayable",
      "type": "function"
    },
    {
      "inputs": [
        {
          "internalType": "uint256",
          "name": "_amount",
          "type": "uint256"
        }
      ],
      "name": "stake",
      "outputs": [],
      "stateMutability": "nonpayable",
      "type": "function"
    },
    {
      "inputs": [
        {
          "internalType": "address",
          "name": "",
          "type": "address"
        }
      ],
      "name": "stakes",
      "outputs": [
        {
          "internalType": "uint256",
          "name": "amount",
          "type": "uint256"
        },
        {
          "internalType": "uint256",
          "name": "timestamp",
          "type": "uint256"
        },
        {
          "internalType": "uint256",
          "name": "lastRewardClaim",
          "type": "uint256"
        }
      ],
      "stateMutability": "view",
      "type": "function"
    },
    {
      "inputs": [],
      "name": "token",
      "outputs": [
        {
          "internalType": "contract IERC20",
          "name": "",
          "type": "address"
        }
      ],
      "stateMutability": "view",
      "type": "function"
    },
    {
      "inputs": [
        {
          "internalType": "address",
          "name": "newOwner",
          "type": "address"
        }
      ],
      "name": "transferOwnership",
      "outputs": [],
      "stateMutability": "nonpayable",
      "type": "function"
    },
    {
      "inputs": [
        {
          "internalType": "uint256",
          "name": "_amount",
          "type": "uint256"
        }
      ],
      "name": "unstake",
      "outputs": [],
      "stateMutability": "nonpayable",
      "type": "function"
    }
  ],
  "bytecode": "0x6080604052600a600455348015610014575f80fd5b50604051610bee380380610bee83398101604081905261003391610110565b60015f55610040336100bf565b6001600160a01b03811661009a5760405162461bcd60e51b815260206004820152601960248201527f546f6b656e20616464726573732063616e6e6f74206265203000000000000000604482015260640160405180910390fd5b600280546001600160a01b0319166001600160a01b039290921691909117905561013d565b600180546001600160a01b038381166001600160a01b0319831681179093556040519116919082907f8be0079c531659141344cd1fd0a4f28419497f9722a3daafe3b4186f6b6457e0905f90a35050565b5f60208284031215610120575f80fd5b81516001600160a01b0381168114610136575f80fd5b9392505050565b610aa48061014a5f395ff3fe608060405234801561000f575f80fd5b50600436106100cb575f3560e01c80639e447fc611610088578063c345315311610063578063c3453153146101af578063d82e3962146101e2578063f2fde38b146101f5578063fc0c546a14610208575f80fd5b80639e447fc614610181578063a694fc3a14610194578063b88a802f146101a7575f80fd5b806316934fc4146100cf5780632e17de781461011d578063715018a6146101325780637b0a47ee1461013a57806383914540146101515780638da5cb5b1461015c575b5f80fd5b6100fd6100dd36600461099b565b60036020525f908152604090208054600182015460029092015490919083565b604080519384526020840192909252908201526060015b60405180910390f35b61013061012b3660046109c8565b61021b565b005b6101306103e7565b61014360045481565b604051908152602001610114565b6101436301e1338081565b6001546001600160a01b03165b6040516001600160a01b039091168152602001610114565b61013061018f3660046109c8565b6103fa565b6101306101a23660046109c8565b610448565b6101306105d4565b6101c26101bd36600461099b565b6106e9565b604080519485526020850193909352918301526060820152608001610114565b6101436101f036600461099b565b610748565b61013061020336600461099b565b6107ee565b600254610169906001600160a01b031681565b610223610864565b5f811161026c5760405162461bcd60e51b81526020600482015260126024820152710416d6f756e74206d757374206265203e20360741b60448201526064015b60405180910390fd5b335f908152600360205260409020548111156102bf5760405162461bcd60e51b8152602060048201526012602482015271496e73756666696369656e74207374616b6560701b6044820152606401610263565b6102c76105d4565b335f908152600360205260409020546102e090826108bb565b335f818152600360205260409081902092909255600254915163a9059cbb60e01b81526004810191909152602481018390526001600160a01b039091169063a9059cbb906044016020604051808303815f875af1158015610343573d5f803e3d5ffd5b505050506040513d601f19601f8201168201806040525081019061036791906109df565b6103a55760405162461bcd60e51b815260206004820152600f60248201526e151c985b9cd9995c8819985a5b1959608a1b6044820152606401610263565b60405181815233907f0f5bb82176feb1b5e747e28471aa92156a04d9f3ab9f45f28e2d704232b93f75906020015b60405180910390a26103e460015f55565b50565b6103ef6108cf565b6103f85f610929565b565b6104026108cf565b60648111156104435760405162461bcd60e51b815260206004820152600d60248201526c0a4c2e8ca40e8dede40d0d2ced609b1b6044820152606401610263565b600455565b610450610864565b5f81116104945760405162461bcd60e51b81526020600482015260126024820152710416d6f756e74206d757374206265203e20360741b6044820152606401610263565b6002546040516323b872dd60e01b8152336004820152306024820152604481018390526001600160a01b03909116906323b872dd906064016020604051808303815f875af11580156104e8573d5f803e3d5ffd5b505050506040513d601f19601f8201168201806040525081019061050c91906109df565b61054a5760405162461bcd60e51b815260206004820152600f60248201526e151c985b9cd9995c8819985a5b1959608a1b6044820152606401610263565b335f9081526003602052604090205415610566576105666105d4565b335f9081526003602052604090205461057f908261097a565b335f8181526003602052604090819020928355426001840181905560029093019290925590517f9e71bc8eea02a63969f509818f2dafb9254532904319f9dbda79b67bd34a5f3d906103d39084815260200190565b5f6105de33610748565b905080156103e457335f81815260036020526040908190204260029182015554905163a9059cbb60e01b81526004810192909252602482018390526001600160a01b03169063a9059cbb906044016020604051808303815f875af1158015610648573d5f803e3d5ffd5b505050506040513d601f19601f8201168201806040525081019061066c91906109df565b6106b15760405162461bcd60e51b815260206004820152601660248201527514995dd85c99081d1c985b9cd9995c8819985a5b195960521b6044820152606401610263565b60405181815233907f106f923f993c2149d49b4255ff723acafa1f2d94393f561d3eda32ae348f72419060200160405180910390a250565b6001600160a01b0381165f908152600360209081526040808320815160608101835281548082526001830154948201859052600290920154928101839052849384938493919061073889610748565b9450945094509450509193509193565b6001600160a01b0381165f908152600360209081526040808320815160608101835281548082526001830154948201949094526002909101549181019190915290820361079757505f92915050565b5f6107af8260400151426108bb90919063ffffffff16565b90506107e660646107e06301e133806107e0856107da600454895f015161098590919063ffffffff16565b90610985565b90610990565b949350505050565b6107f66108cf565b6001600160a01b03811661085b5760405162461bcd60e51b815260206004820152602660248201527f4f776e61626c653a206e6577206f776e657220697320746865207a65726f206160448201526564647265737360d01b6064820152608401610263565b6103e481610929565b60025f54036108b55760405162461bcd60e51b815260206004820152601f60248201527f5265656e7472616e637947756172643a207265656e7472616e742063616c6c006044820152606401610263565b60025f55565b5f6108c68284610a12565b90505b92915050565b6001546001600160a01b031633146103f85760405162461bcd60e51b815260206004820181905260248201527f4f776e61626c653a2063616c6c6572206973206e6f7420746865206f776e65726044820152606401610263565b600180546001600160a01b038381166001600160a01b0319831681179093556040519116919082907f8be0079c531659141344cd1fd0a4f28419497f9722a3daafe3b4186f6b6457e0905f90a35050565b5f6108c68284610a25565b5f6108c68284610a38565b5f6108c68284610a4f565b5f602082840312156109ab575f80fd5b81356001600160a01b03811681146109c1575f80fd5b9392505050565b5f602082840312156109d8575f80fd5b5035919050565b5f602082840312156109ef575f80fd5b815180151581146109c1575f80fd5b634e487b7160e01b5f52601160045260245ffd5b818103818111156108c9576108c96109fe565b808201808211156108c9576108c96109fe565b80820281158282048414176108c9576108c96109fe565b5f82610a6957634e487b7160e01b5f52601260045260245ffd5b50049056fea264697066735822122025ca27e8c1105bf312e3876274223541f4442f5c6f909bdb6be64963d177d25564736f6c63430008140033",
  "linkReferences": {},
  "deployedLinkReferences": {}
}